:020000001628C0
:0E000600831203132B088A002A0882000800C8
:1000140003208A110A128000840AAA0A0319AB0A6F
:08002400F003031D0A28080087
:10002C003F3083120313A0000630A1005B30A20006
:10003C004F30A3006630A4006D30A5007D30A600C3
:10004C000730A7007F30A8006F30A9008316860107
:10005C0083128601F101F20180307206F0008030CB
:10006C007002031D3B280A307102031854287108D2
:10007C00203E8400000886000B30FB002630FC007C
:10008C005D30FD00FD0B4828FC0B4828FB0B482875
:10009C0000000000F10A0319F20A32283028552812
:02400E004A2F37
:00000001FF
