:020000001628C0
:0E0006008312031329088A00280882000800CC
:1000140003208A110A128000840AA80A0319A90A73
:08002400F003031D0A28080087
:10002C00C03083120313A000F930A100A430A20049
:10003C00B030A3009930A4009230A500A601A7010E
:10004C008316860187018312A601A701803027063B
:10005C00F00080307002031D352819302602031879
:10006C006F280714250886001A30FC00F830FD00B4
:10007C00FD0B3E28FC0B3E280000071087142408BB
:10008C0086001A30FC00F830FD00FD0B4B28FC0BF1
:10009C004B28000087100715220886001A30FC0038
:1000AC00F830FD00FD0B5828FC0B582800000711F8
:1000BC008715230886001A30FC00F830FD00FD0B74
:1000CC006528FC0B652800008711A60A0319A70AEE
:0600DC002C2829287028E1
:02400E004A2F37
:00000001FF
