:02000000552881
:1000060083120313A201A30180302306F00080307F
:100016007002031D10283230220203182B28061402
:100026000630FC00B530FD00FD0B1728FC0B172829
:100036000000000006102F30FC003A30FD00FD0BDA
:100046002228FC0B22280000A20A0319A30A07286B
:020056000800A0
:1000580083120313A201A30180302306F00080302D
:100068007002031D3928323022020318542806145E
:100078000430FC00E430FD00FD0B4028FC0B402858
:10008800000006103130FC000B30FD00FD0B4A2843
:10009800FC0B4A2800000000A20A0319A30A302812
:0200A80008004E
:1000AA0083160313860103200B30FB002630FC0065
:1000BA005D30FD00FD0B5F28FC0B5F28FB0B5F2802
:1000CA00000000002C200B30FB002630FC005D30C5
:1000DA00FD00FD0B6E28FC0B6E28FB0B6E28000042
:0600EA00000058287728F1
:02400E004A2F37
:00000001FF
