:020000000328D3
:1000060083160313860183128601FF308316870049
:1000160083120615071C342806148610A001A101B8
:1000260080302106F00080307002031D1C286430E9
:100036002002031831288230FC00DD30FD00FD0B64
:100046002228FC0B222800000000871C2D28061001
:1000560086103128A00A0319A10A13280610861053
:100066005F28871C3928061086105F28071D5F2821
:1000760006108614A001A10180302106F000803010
:100086007002031D48286430200203185D28823060
:10009600FC00DD30FD00FD0B4E28FC0B4E28000059
:1000A6000000871C5928061086105D28A00A03192F
:0C00B600A10A3F28061086100D286028C3
:02400E004A2F37
:00000001FF
