:020000000328D3
:1000060083160313860183128601FF308316870049
:1000160083120615071C352806148610A001A101B7
:1000260080302106F0008030013A7002031D1D2841
:1000360090302002031832288230FC00DD30FD00AB
:10004600FD0B2328FC0B232800000000871C2E280C
:10005600061086103228A00A0319A10A13280610D2
:1000660086106128871C3A28061086106128071D0D
:10007600612806108614A001A10180302106F00037
:100086008030013A7002031D4A289030200203187E
:100096005F288230FC00DD30FD00FD0B5028FC0B94
:1000A600502800000000871C5B28061086105F2879
:1000B600A00A0319A10A4028061086100D286228F6
:02400E004A2F37
:00000001FF
