:020000004B2A89
:10000600831203132230FC00F801F901FA01FB0107
:10001600FC03031939280310FB0CFA0CF90CF80C35
:10002600F30CF20CF10CF00C031C0B28FC03031967
:100036002B287408F80775080318750FF907760852
:100046000318760FFA0777080318770FFB070F28B0
:100056007408F80775080318750FF907760803186A
:0E006600760FFA0777080318770FFB070800DC
:10007400710DF80DF90D7408F8027508031C750F5D
:10008400F902F00DF10D0F30FC00710DF80DF90DB2
:100094007408701C5328F8027508031C750FF902C4
:1000A4005828F80775080318750FF907F00DF10DB6
:1000B400FC0B4728701864287408F807750803189F
:0800C400750FF90700000800A8
:1000CC0083120313FB01FA01F9018030F800F10CE3
:1000DC00F00C031C7A287408F90775080318750FBF
:1000EC00FA070318FB0A0310F01F82287408FA079A
:1000FC0075080318750FFB07FB0CFA0CF90CF80CC0
:10010C00031C6D287B08F3007A08F2007908F100D3
:06011C007808F000080065
:0E0122008312031330088A002F0882000800A1
:10013000831203137408003A031DA7287508003AB8
:10014000031DA728FF30F0007F30F1000029831243
:100150000313FD01F901F80171087004031900345B
:1001600071087506FA00FA1BFD09FB01F51FBD2891
:10017000F409F509F40A0319F50AF11FC428F00976
:10018000F109F00A0319F10A71087504FA00FA1B63
:10019000D9283A207B18EC28FD1F0034F009F1091A
:1001A000F00A0319F10AF809F909F80A0319F90A1A
:1001B0000034F51FE828F11BE4287108F9007008E5
:1001C000F800F101F001CC28F101F001F00A00344F
:1001D000F109F009FB0AC928F80A0319F90A740899
:1001E0007802031DCC2875087902031DCC28F9017B
:1001F000F801F00A0319F10AF11FCC280000FF34BE
:020200000800F4
:10020200D03083120313BB000730BC00BD01BE0116
:10021200D030F0000730F1000030F2000030F3007F
:100222003908F4003A08F500F601F70103207008D6
:10023200BB007108BC007208BD007308BE0000302C
:100242007302031D2E2900307202031D2E29023073
:100252007102031D2E29B230700203183129702950
:10026200B230F0000230F100F201F3017008BB027B
:100272007108031C710FBC027208031C720FBD02CD
:100282007308031C730FBE020530F00070080319D7
:100292005129BE0CBD0CBC0CBB0CBE13FF3E482941
:1002A2003B08F0003C08F1003D08F2003E08F30074
:1002B2000130BB02031CBC02031CBD02031CBE02B4
:1002C200700871047204730403197029000000009D
:1002D200000000000000000000000000512908009A
:1002E20083120313B101B20180303206F000803074
:1002F2007002031D7E291930310203183D2A2D0890
:10030200AB002E08AC0080302E06F0008030700268
:10031200031D8D2900302D0203189C292B08F000A3
:100322002C08F100FF30F400FF30F5006620700861
:10033200AB007108AC000A30F4000030F5002B0865
:10034200F0002C08F10098207008B7007108B8007E
:100352000A30F4000030F5002B08F0002C08F10000
:1003620098207808F0007908F1007008B30071084D
:10037200B400071480302E06F00080307002031D96
:10038200C42900302D020318C9292A088600CE2963
:100392003708203E8400000886000A30B900003089
:1003A200BA000121071087143308203E8400000898
:1003B20086000A30B9000030BA0001218710081CFB
:1003C200F5292C30B9000130BA000121AD0A031918
:1003D200AE0A00302E06031DF02964302D06031DDF
:1003E200F429AD01AE013D2A881C0B2A2C30B9003C
:1003F2000130BA0001210130AD02031CAE03FF300F
:100402002E06031D062AF6302D06031D0A2AAD010B
:10041200AE013D2A081D392A2D08B5002E08B60066
:1004220080302E06F00080307002031D1A2A003040
:100432002D020318292A3508F0003608F100FF3092
:10044200F400FF30F50066207008B5007108B600B0
:1004520007153508F0003608F100E830F4000330E3
:10046200F50066207008B9007108BA000121071171
:0C047200B10A0319B20A752971290800AB
:10047E0091208A110A128000840AAF0A0319B00A69
:08048E00F003031D3F2A0800E2
:10049600C03083120313A000F930A100A430A200DB
:1004A600B030A3009930A4009230A5008230A60097
:1004B600F830A7008030A8009030A900BF30AA000D
:1004C600AB01AC01AD01AE01831686018312860134
:1004D6008316870183128701FF30831688008312F3
:0604E60088017121752A56
:02400E004A2F37
:00000001FF
