:020000000328D3
:10000600831603138601831286010130F100003046
:10001600F2008030F000803072067002031D152851
:100026007108323C031C302806140330FC001230E1
:10003600FD00FD0B1C28FC0B1C28000006103230AE
:10004600FC00DD30FD00FD0B2628FC0B26280000F9
:100056000000F10A0319F20A0C281530FB004B3098
:10006600FC00BE30FD00FD0B3628FC0B3628FB0BD2
:10007600362800000130F1000030F2008030F00038
:10008600803072067002031D4A287108323C031C38
:10009600652806140430FC00E430FD00FD0B5128F1
:1000A600FC0B5128000006103130FC000B30FD001F
:1000B600FD0B5B28FC0B5B2800000000F10A03190E
:1000C600F20A41281530FB004B30FC00BE30FD0023
:1000D600FD0B6B28FC0B6B28FB0B6B28000001301B
:1000E600F1000030F2008030F000803072067002BD
:1000F600031D7F287108323C031C9A28061406301B
:10010600FC00B530FD00FD0B8628FC0B86280000A0
:10011600000006102F30FC003A30FD00FD0B912840
:10012600FC0B91280000F10A0319F20A7628153013
:10013600FB004B30FC00BE30FD00FD0BA028FC0B85
:0C014600A028FB0BA02800000828A82817
:02400E004A2F37
:00000001FF
