:020000000329D2
:0E000600213083120313FD00FD0B07280800B4
:100014000F3083120313FC004730FD00FD0B102842
:0A002400FC0B10280000000008008B
:06002E00000000000800C4
:1000340083120313DF1B20288613212886175F1BD6
:100044002528061326280617DF1A2A2886122B28A5
:1000540086165F1A2F2806123028061657183428D9
:10006400061535280611861517208611DF193C2838
:1000740086133D2886175F19412806134228061760
:10008400DF1846288612472886165F184B28061262
:100094004C2806165718502806155128061186159F
:1000A40017208611571C58280A20592803200800B5
:0E00B4008312031359088A00580882000800BE
:1000C2008312031357105E08DF001A20571408002A
:1000D200831603138611061106128612061386135F
:1000E20083128611061186130613861206120A203F
:1000F2000A200A20861606168615172086110A205F
:100102008615172086110A208615172086110A20C7
:1001120006128615172086110A20861517208611C9
:10012200861286178615172086110A208613061650
:1001320086151720861106128615172086110A20A9
:1001420086151720861106168615172086110A2095
:1001520006128615172086118617061786160616AA
:0C0162008615172086110A20571408008B
:10016E00C928803083120313DA00DC28C030DA008D
:10017E00DC289430DA00DC28D430DA00DC28803039
:10018E00DA00DC28831203135A08013A0319B8283F
:10019E005A08023A0319BD285A08033A0319C0280F
:1001AE005A08043A0319C328C6285B03F0005A08FC
:1001BE00F0077008DA007008DF001A205710DD0112
:1001CE005D085C07840000080319F5285D085C07CC
:1001DE0084000008DE006120DD0AE72857140800BD
:1001EE005A208A110A128000840AD80A0319D90AE1
:0801FE00F003031DF7280800BF
:10020600A22169200C30DF001A200130DF001A20FD
:100216000130DA000130DB004F30DC00B72002305D
:10022600DA000130DB002030DC00B720D030FC00E3
:10023600C930FD00FD0B1D29FC0B1D290000000027
:10024600D501D60180305606F00080307002031DBD
:100256002E2914305502031844291830DF001A20BD
:100266000230FB000430FC00BA30FD00FD0B3929DA
:10027600FC0B3929FB0B39290000D50A0319D60ACC
:100286002529D501D60180305606F000803070024F
:10029600031D4F2914305502031865291C30DF0051
:1002A6001A200230FB000430FC00BA30FD00FD0BC2
:1002B6005A29FC0B5A29FB0B5A290000D50A0319A7
:0802C600D60A46292329662906
:1003440020308400353083120313F0006C30D80061
:080354000130D900F720080078
:1002D8004334533445342C3420345034613462343C
:1002E8006E346134203455346E3469347634653470
:1002F8007234733469347434793420346F34663426
:10030800203453346334693465346E34633465346B
:1003180020342634203454346534633468346E34DD
:0E0328006F346C346F34673479342E34003403
:0C0336004E346134793465346D34003489
:02400E004A2F37
:00000001FF
