:020000000328D3
:10000600831603138601FF308700831286010615C7
:10001600071C1F280230FB000430FC00BA30FD002C
:10002600FD0B1328FC0B1328FB0B13280000071CE1
:100036001E28061486104628871C33280230FB002B
:100046000430FC00BA30FD00FD0B2728FC0B2728E6
:10005600FB0B27280000871C32280610861046282E
:10006600071D46280230FB000430FC00BA30FD00B4
:10007600FD0B3B28FC0B3B28FB0B3B280000071D18
:0A0086004628061086140B284728B0
:02400E004A2F37
:00000001FF
