:020000001628C0
:0E0006008312031323088A00220882000800D8
:1000140003208A110A128000840AA20A0319A30A7F
:08002400F003031D0A28080087
:10002C0083120313A001A10183168601831286019A
:10003C00FF308316870083120615071C78280614D8
:10004C00861086150630FB001330FC00AD30FD0029
:10005C00FD0B2E28FC0B2E28FB0B2E28000000007D
:10006C008611A401A50180302506F0008030013AEC
:10007C007002031D4328903024020318722882302A
:10008C00FC00DD30FD00FD0B4928FC0B492800006D
:10009C00000032302007F10021080318013EF20065
:1000AC007108A0007208A1007208013A031D6028B3
:1000BC00F4307106031D6928861D66288611672891
:1000CC008615A001A101871C6E28061086107228C7
:1000DC00A40A0319A50A3928061086108611A00156
:1000EC00A101BE28871C7D2806108610BE28071D7E
:1000FC00BE2806108614A401A50180302506F00048
:10010C008030013A7002031D8D28903024020318B0
:10011C00BC288230FC00DD30FD00FD0B9328FC0B6D
:10012C0093280000000032302007F100210803184A
:10013C00013EF2007108A0007208A1007208013A99
:10014C00031DAA28F4307106031DB328861DB028A0
:10015C008611B1288615A001A101871CB8280610AC
:10016C008610BC28A40A0319A50A83280610861039
:04017C002328BF284D
:02400E004A2F37
:00000001FF
