:020000007C2959
:10000600710DF80DF90D7408F8027508031C750FCB
:10001600F902F00DF10D0F30FC00710DF80DF90D20
:100026007408701C1C28F8027508031C750FF90269
:100036002128F80775080318750FF907F00DF10D5B
:10004600FC0B102870182D287408F807750803187B
:08005600750FF9070000080016
:0E005E008312031330088A002F088200080066
:10006C00831203137408003A031D45287508003ADF
:10007C00031D4528FF30F0007F30F1009E288312CD
:10008C000313FD01F901F801710870040319003420
:10009C0071087506FA00FA1BFD09FB01F51F5B28B8
:1000AC00F409F509F40A0319F50AF11F6228F0099D
:1000BC00F109F00A0319F10A71087504FA00FA1B28
:1000CC00772803207B188A28FD1F0034F009F109DA
:1000DC00F00A0319F10AF809F909F80A0319F90ADF
:1000EC000034F51F8628F11B82287108F90070086E
:1000FC00F800F101F0016A28F101F001F00A003476
:10010C00F109F009FB0A6728F80A0319F90A7408BF
:10011C007802031D6A2875087902031D6A28F90103
:10012C00F801F00A0319F10AF11F6A280000FF34E4
:02013C000800B9
:10013E0083120313FB01FA01F9018030F800F10C70
:10014E00F00C031CB3287408F90775080318750F13
:10015E00FA070318FB0A0310F01FBB287408FA07EE
:10016E0075080318750FFB07FB0CFA0CF90CF80C4D
:10017E00031CA6287B08F3007A08F2007908F10028
:06018E007808F0000800F3
:1001940083120313B501B60180303606F0008030B7
:1001A4007002031DD7281930350203186E292D0853
:1001B400AB002E08AC0080302E06F00080307002B8
:1001C400031DE62800302D020318F5282B08F00043
:1001D4002C08F100FF30F400FF30F5009F20700878
:1001E400AB007108AC000A30F4000030F5002B08B5
:1001F400F0002C08F10036207008B1007108B2003C
:100204000A30F4000030F5002B08F0002C08F1004F
:1002140036207808F0007908F1007008B3007108FE
:10022400B400071480302E06F00080307002031DE5
:100234001D2900302D02031822292A0886002729A7
:100244003108203E8400000886001A30FC00F83093
:10025400FD00FD0B2B29FC0B2B2900000710871434
:100264003308203E8400000886001A30FC00F83071
:10027400FD00FD0B3B29FC0B3B2900008710081CEB
:1002840055290430FB000C30FC003330FD00FD0B1D
:100294004929FC0B4929FB0B492900000000AD0A40
:1002A4000319AE0A6E29881C6A290430FB000C303D
:1002B400FC003330FD00FD0B5D29FC0B5D29FB0BBD
:1002C4005D29000000000130AD02031CAE036E295D
:0C02D400B50A0319B60ACE28CA28080093
:1002E0002F208A110A128000840AAF0A0319B00A6B
:0802F000F003031D7029080052
:1002F800C03083120313A000F930A100A430A2007B
:10030800B030A3009930A4009230A5008230A60036
:10031800F830A7008030A8009030A900BF30AA00AC
:10032800AB01AC01AD01AE018316860183128601D3
:100338008316870183128701FF3083168800831292
:060348008801CA20A6296D
:02400E004A2F37
:00000001FF
