:02000000AB282B
:10000600710DF80DF90D7408F8027508031C750FCB
:10001600F902F00DF10D0F30FC00710DF80DF90D20
:100026007408701C1C28F8027508031C750FF90269
:100036002128F80775080318750FF907F00DF10D5B
:10004600FC0B102870182D287408F807750803187B
:08005600750FF9070000080016
:0E005E008312031331088A0030088200080064
:10006C002F208A110A128000840AB00A0319B10ADF
:08007C00F003031D3628080003
:10008400831203137408003A031D51287508003ABB
:10009400031D5128FF30F0007F30F100AA2883129D
:1000A4000313FD01F901F801710870040319003408
:1000B40071087506FA00FA1BFD09FB01F51F672894
:1000C400F409F509F40A0319F50AF11F6E28F00979
:1000D400F109F00A0319F10A71087504FA00FA1B10
:1000E400832803207B189628FD1F0034F009F109AA
:1000F400F00A0319F10AF809F909F80A0319F90AC7
:100104000034F51F9228F11B8E287108F90070083D
:10011400F800F101F0017628F101F001F00A003451
:10012400F109F009FB0A7328F80A0319F90A74089B
:100134007802031D762875087902031D7628F901D3
:10014400F801F00A0319F10AF11F76280000FF34C0
:020154000800A1
:1001560083120313A001A1014A30A2000830A300B4
:10016600C030A400F930A500A430A600B030A70026
:100176009930A8009230A9008230AA00F830AB006E
:100186008030AC009030AD00831686018701831263
:10019600A001A10180302106F00080307002031D0D
:1001A600D628193020020318A8292208AE002308F1
:1001B600AF000A30F4000030F5002208F0002308F2
:1001C600F10042207808F0007908F1007008B400C8
:1001D6007108B5000A30F4000030F5002208F0007E
:1001E6002308F10042207008BA007108BB003A08E3
:1001F600AE003B08AF000A30F4000030F5003A08C4
:10020600F0003B08F10042207808F0007908F10080
:100216007008B6007108B7000A30F4000030F50027
:100226003A08F0003B08F10042207008BA00710855
:10023600BB003A08AE003B08AF000A30F4000030BD
:10024600F5003A08F0003B08F10042207808F0007B
:100256007908F1007008B8007108B9000A30F40096
:100266000030F5003A08F0003B08F1004220700823
:10027600BC007108BD003C08AE003D08AF000A3066
:10028600F4000030F5003C08F0003D08F100422083
:100296007808F0007908F1007008BA007108BB0010
:1002A6003A08B2003B08B3000A30F4000030F5000B
:1002B6003C08F0003D08F10042207008AE007108CD
:1002C600AF0007143A08243E8400000886001A305E
:1002D600FC00F830FD00FD0B6E29FC0B6E290000BA
:1002E600071087143808243E8400000886001A3058
:1002F600FC00F830FD00FD0B7E29FC0B7E2900007A
:10030600871007153608243E8400000886001A3038
:10031600FC00F830FD00FD0B8E29FC0B8E29000039
:10032600071187153408243E8400000886001A3019
:10033600FC00F830FD00FD0B9E29FC0B9E290000F9
:100346008711A00A0319A10ACD281A30FC00F8303B
:10035600FD00FD0BAC29FC0BAC290000A20A031919
:10036600A30A2308083A031DBA295D302206031D95
:08037600BD29BE29CA28BE29D9
:02400E004A2F37
:00000001FF
